:03000000020B7B75
:100B7B00787FE4F6D8FD9000007FFF7E03E4F0A3BE
:0A0B8B00DFFCDEFA758141020BD099
:0F0068000A2048656C6C6F20776F726C64210002
:100C1500E4F5087F0612083CA2AF920CC2AF75C777
:100C2500AA75C755E4F591A20C92AF53B1BF43B273
:100C350040A2AF920CC2AF75C7AA75C755F591A270
:100C45000C92AF53B1EF43B210750D01F51175104C
:100C5500C2750F01F50EFF7E367D6E7C01120932DD
:100C6500D299D2097BFF7A0079681200E06308FF08
:100C7500E50824FF9284750D00750E80750F0375C8
:100C850010E8E47514E8751303F512F511FF7E36C7
:090C95007D6E7C0112071B80CB6F
:040DF800C109C10A62
:03002300020DBD0E
:100DBD00C091309807D20A859940C2983099052084
:070DCD000902C299D0913226
:03007B00020DD49F
:100DD400C09130F807859A41D20BC2F830F905204A
:070DE4000902C2F9D09132AF
:100932008F0C8E0B8D0A8C09E50D14604F14606DBF
:1009420024026003020A1E7598504389204387805F
:10095200438E10A2AF920CC2AF75C7AA75C755E4F9
:10096200F591A20C92AF53C4DF7B10FAF9F8AF0CE9
:10097200AE0BAD0AAC09120465AB11AA10A90FA8FF
:100982000E120465EFF404F58DD28E227598504351
:10099200878053C4F8A2AF920CC2AF75C7AA75C7BD
:1009A20055E4F591A20C92AF43C420800775F8502C
:1009B20075C480E47B10FAF9F8AF0CAE0BAD0AAC4B
:1009C20009120465AB11AA10A90FA80E120465C37F
:1009D200E49FFFE49EFE74019DFDE49CFC780812F6
:1009E20004F78FC6E47B10FAF9F8AF0CAE0BAD0A30
:1009F200AC09120465AB11AA10A90FA80E12046566
:100A0200C3E49FFFE48FC5A2AF920CC2AF75C7AA21
:0D0A120075C755F591A20C92AF43C40822A0
:0D0DEB00EF1460060470058D99228D9A2288
:100D3800A2AF920CC2AF75C7AA75C755E4F591A2C8
:100D48000C92AF53B1BF53B2BFF50DF5117510C278
:100D5800750F01F50EFF7E367D6E7C01120932D2C9
:040D680099D20922F1
:080A1F008F318E308D2F8C2EDB
:100A2700538EF75389F04389017B407A42790F78D7
:100A370000AF31AE30AD2FAC2E120465A804A90566
:100A4700AA06AB07AE34AF35E4FCFD1203DAE47B4C
:100A57000CFAF9F8120465C374FF9FFF74FF9EE454
:100A67009DE49CE48F367B407A42790FF8AF31AE34
:100A770030AD2FAC2E120465A804A905AA06AB0752
:100A8700AE34AF35E4FCFD1203DAE47B0CFAF9F877
:100A9700120465C374FF9FFF74FF9EFEE49DFDE48F
:100AA7009CFC78081204F7E5334532601885368ACE
:100AB7008F8CD28C308DFDC28DC28CE5331533708F
:050AC70002153280E27F
:010ACC002207
:080ACD008F3A8E398D388C3709
:100AD500538EEF53890F4389107B407A42790F7803
:100AE50000AF3AAE39AD38AC37120465A804A90594
:100AF500AA06AB07AE3DAF3EE4FCFD1203DAE47B8C
:100B05000CFAF9F8120465C374FF9FFF74FF9EE4A5
:100B15009DE49CE48F3F7B407A42790FF8AF3AAE73
:100B250039AD38AC37120465A804A905AA06AB0788
:100B3500AE3DAF3EE4FCFD1203DAE47B0CFAF9F8B6
:100B4500120465C374FF9FFF74FF9EFEE49DFDE4E0
:100B55009CFC78081204F7E53C453B6018853F8B03
:100B65008F8DD28E308FFDC28FC28EE53C153C70C5
:050B750002153B80E2C7
:010B7A002258
:08071B008F0C8E0B8D0A8C0976
:10072300E4F591E50E850DF012050A075200010765
:10073300570004075F001007670020076F0040079A
:10074300770080077F0100078702000000078D53B1
:10075300C98F803653C98F43C910802E53C98F4325
:10076300C920802653C98F43C930801E53C98F4384
:10077300C940801653C98F43C950800E53C98F4354
:10078300C960800653C98F43C970C2C843C9804337
:10079300C9047B407A42790F7800AF0CAE0BAD0AE7
:1007A300AC09120465AB14AA13A912A8111203DA37
:1007B300C006C007AE0DAF0EAB07AA06E4F9F8D02A
:1007C30007D006120465C3E49FFFE49E74019DE411
:1007D3009CE48F157B407A42790FF8AF0CAE0BADDA
:1007E3000AAC09120465AB14AA13A912A8111203C7
:1007F300DAC006C007AE0DAF0EAB07AA06E4F9F8E0
:10080300D007D006120465C3E49FFFE49EFE740183
:100813009DFDE49CFC78081204F7E510450F601871
:100823008515CC8FCDD2CA30CFFDC2CFC2CAE51059
:0808330015107002150F80E2A0
:01083B00229A
:0805C5008F258E248D238C226A
:1005CD00E4F591E52624FE602124FE602524FC60DF
:1005DD002924F8602D24F0603124E0603524C060BA
:1005ED0039247F703B53C4F8803653C4F843C4019B
:1005FD00802E53C4F843C402802653C4F843C40369
:10060D00801E53C4F843C404801653C4F843C40574
:10061D00800E53C4F843C406800653C4F843C40780
:10062D007B407A42790F7800AF25AE24AD23AC2202
:10063D00120465AB2CAA2BA92AA8291203DAC0072C
:10064D00AF26AB07E4FAF9F8D007120465C3E49FAF
:10065D00FFE49E74019DE49CE48F2D7B407A4279EA
:10066D000FF8AF25AE24AD23AC22120465AB2CAA36
:10067D002BA92AA8291203DAC007AF26AB07E4FA83
:10068D00F9F8D007120465C3E49FFFE49EFE7401E0
:10069D009DFDE49CFC78081204F7E5284527606D64
:1006AD00A2AF920CC2AF75C7AA75C755E4F591A25A
:1006BD000C92AF53C4EF852DC58FC6A2AF920CC25D
:1006CD00AF75C7AA75C755F591A20C92AF43C40873
:1006DD00E5C444EF64EF60F8A2AF920CC2AF75C7EA
:1006ED00AA75C755E4F591A20C92AF53C4EFA2AF12
:1006FD00920CC2AF75C7AA75C755F591A20C92AFF2
:0D070D0053C4F7E528152870021527808DCC
:01071A0022BC
:10000300EF14600D14600D14600E2403700DD2A95B
:0C00130022D2AB22439B8022439C02229D
:02083C00A9070A
:10083E00E4F591E924F9600C14600924027008753E
:10084E00A638800375A630A2AF920CC2AF75C7AAA8
:10085E0075C755439F01A20C92AFE4F5A775AF047F
:10086E00A2AF920CC2AF75C7AA75C75543A401A219
:10087E000C92AFADAE05A6A2AF920CC2AF75C7AAD1
:10088E0075C75543A401A20C92AFACAEE924F87023
:10089E006FED25E0FFE433FEEC54017A002FFFEA02
:1008AE003EFE74F22FFF74FF3EFE75AF0C75A6016F
:1008BE00E4F5A7A2AF920CC2AF75C7AA75C7554390
:1008CE00A401A20C92AFABAEEB644B600EABAEEBE1
:1008DE0064526007ABAEEB6453701BED543FC39490
:1008EE000774809480500A74F62FFF74FF3EFE80CA
:1008FE0005EF1F70011EEF5401FCEEC313EF13FD45
:10090E0075C7AA75C7558D8475C7AA75C7558C85C9
:10091E00A2AF920CC2AF75C7AA75C755539FFEA260
:03092E000C92AF79
:0109310022A3
:10002600EF24FD6011146012240270357F02120D58
:10003600007F02020C9E7F0380117F02120D007F5B
:1000460002120C9E7F04120D007F04120C9EA2AFBA
:10005600920CC2AF75C7AA75C7555397DFA20C920B
:02006600AF22C7
:100D0000EF24FC60212402702EA2AF920CC2AF75BA
:100D1000C7AA75C755439720A20C92AFE59644DF4A
:100D200064DF701380F675C7AA75C7554397C0E591
:080D30009644F764F760F82215
:100D6C00E4F591EF24FC60182402701DA2AF920CE4
:100D7C00C2AF75C7AA75C7555397DFA20C92AF22A5
:0A0D8C0075C7AA75C75553973F229B
:100C9E00E4F591A2AF920CC2AFEF24FD6018146080
:100CAE003924027048A2AF920CC2AF75C7AA75C79D
:100CBE00555396FB800FA2AF920CC2AF75C7AA75A3
:100CCE00C755439604A20C92AFA2AF920CC2AF7559
:100CDE00C7AA75C7555396FD800FA2AF920CC2AF2F
:100CEE0075C7AA75C755439608A20C92AFA20C926F
:020CFE00AF2223
:100B9500020C15E493A3F8E493A34003F68001F255
:100BA50008DFF48029E493A3F85407240CC8C33361
:100BB500C4540F4420C8834004F456800146F6DF30
:100BC500E4800B0102040810204080900DF8E47EBB
:100BD500019360BCA3FF543F30E509541FFEE49325
:100BE500A360010ECF54C025E060A840B8E493A3EC
:100BF500FAE493A3F8E493A3C8C582C8CAC583CA17
:100C0500F0A3C8C582C8CAC583CADFE9DEE780BECE
:010DFC0000F6
:1003DA00E88FF0A4CC8BF0A42CFCE98EF0A42CFCC2
:1003EA008AF0EDA42CFCEA8EF0A4CDA8F08BF0A440
:1003FA002DCC3825F0FDE98FF0A42CCD35F0FCEB9F
:10040A008EF0A4FEA9F0EB8FF0A4CFC5F02ECD3963
:0F041A00FEE43CFCEAA42DCE35F0FDE43CFC22D0
:1004290075F008758200EF2FFFEE33FECD33CDCC8A
:1004390033CCC58233C5829BED9AEC99E58298400D
:100449000CF582EE9BFEED9AFDEC99FC0FD5F0D6EA
:10045900E4CEFBE4CDFAE4CCF9A88222B800C1B914
:100469000059BA002DEC8BF084CFCECDFCE5F0CB52
:10047900F97818EF2FFFEE33FEED33FDEC33FCEB8B
:1004890033FB10D703994004EB99FB0FD8E5E4F946
:10049900FA227818EF2FFFEE33FEED33FDEC33FC33
:1004A900C933C910D7059BE99A4007EC9BFCE99A27
:1004B900F90FD8E0E4C9FAE4CCFB2275F010EF2F6C
:1004C900FFEE33FEED33FDCC33CCC833C810D7076C
:1004D9009BEC9AE899400AED9BFDEC9AFCE899F8A7
:0E04E9000FD5F0DAE4CDFBE4CCFAE4C8F9223A
:1004F700E8600FECC313FCED13FDEE13FEEF13FFE3
:03050700D8F12206
:10050A00D083D082F8E4937012740193700DA3A380
:10051A0093F8740193F5828883E473740293B5F0B7
:0D052A00067403936860E9A3A3A3A380D81F
:10007E00E518240CF8E60518227809300702780CEA
:10008E00E475F00112058F0205372000EB7F2ED2AA
:10009E00008018EF540F2490D43440D4FF30040B5A
:1000AE00EF24BFB41A0050032461FFE51960021556
:1000BE0019051CE51C7002051B30070D7809E47547
:1000CE00F00112058FEF02057D020D967403D20723
:1000DE008003E4C207F5188B098A0A890BE4F51927
:1000EE00F51BF51CE51960077F201200B980F57528
:1000FE001AFFC201C200C202C203C205C206C20872
:10010E00120087FF700D3007057F001200CAAF1C6A
:10011E00AE1B22B4255FC2D5C204120087FF24D0C5
:10012E00B40A00501A75F00A781930D50508B6FFD2
:10013E000106C6A426F620D5047002D20380D92467
:10014E00CFB41A00EF5004C2E5D2040202CAD201A3
:10015E0080C6D20080C0D20280BCD2D580BAD20571
:10016E0080B47F201200B92002077401B519004037
:10017E00F112007EFF1200B90200F2D208D2068000
:10018E009512007EFB12007EFA12007EF94A4B7029
:10019E0006799B7A037BFF20022EE519602A7E00EA
:1001AE008E8275830012055060060EEE651A70F091
:1001BE00C2D5EBC0E0EAC0E0E9C0E0EE120311D018
:1001CE00E0F9D0E0FAD0E0FB120537FF60AAEBC0F1
:1001DE00E0EAC0E0E9C0E01200B9D0E02401F9D0B5
:1001EE00E03400FAD0E0FBE51A0460DCD51AD980C1
:1001FE00877BFF7A03790DD202809C791080027979
:10020E0008C206C2088008D2D5790A8004790AC2CB
:10021E00D5E51A047002F51AE4FAFDFEFF12007E0F
:10022E00FC7B0820011312007EFD7B1030000A12A9
:10023E00007EFE12007EFF7B20EC3382D592D550DD
:10024E0013C3E43000069FFFE49EFEE42001039DED
:10025E00FDE49CFCE4CBF8C201EC700CCFCECDCC0F
:10026E00E824F8F870F38017C3EF33FFEE33FEED9A
:10027E0033FDEC33FCEB33FB994002FB0FD8E9EB7B
:10028E00300105F8D0E0C448B201C0E00AEC4D4E92
:10029E004F78207B0070C2EAB51A0040BCC0E01255
:1002AE000313D0F0D0E0200104C4C0E0C4B201C0FA
:1002BE00F01200A2D0F0D5F0EB0200F212059F0171
:1002CE008F5302095801604C015C42020D4F02151A
:0F02DE0044021549017543021B5501FF4601FFFC
:1002ED004501FF4703BB5001642D01682E018B2B87
:1002FD00016C2301892003A42A01244800000183F5
:10030D003F3F3F00790AA2D5200314300509B910EB
:10031D00020404B9080104A2D520060250010420EC
:10032D0002689202B519005034C0E07F20300319E5
:10033D007F30A20272067205500F12036AC202C20A
:10034D0006C205C2087F30800F300503E9C0E012F8
:10035D0000B9300503D0E0F9D0E0B519CC30051760
:10036D007F30B9100C1200B97F583004077F7880A8
:10037D0003B908031200B93002057F2D0200B97FC1
:10038D00202008F87F2B2006F322920280CF286EC2
:10039D00756C6C2900D20112007E3001F8C2017813
:1003AD001930D50108F60201242D50434958120089
:1003BD007E2403B405004001E49003B6931200AA15
:0D03CD00743A1200AAD20375190402020945
:10053700BB010689828A83E0225002E722BBFE02C2
:09054700E32289828A83E49322F5
:10055000BB010CE58229F582E5833AF583E0225060
:1005600006E92582F8E622BBFE06E92582F8E222AA
:0D057000E58229F582E5833AF583E49322C4
:10057D00BB010689828A83F0225002F722BBFE015D
:02058D00F32257
:10058F00FAE6FB0808E6F925F0F618E6CA3AF6226D
:10059F00D083D082F8E4937012740193700DA3A3EB
:1005AF0093F8740193F5828883E4737402936860FF
:0605BF00EFA3A3A380DFFF
:100D9600EFB40A07740D120DA1740A309811A899C0
:100DA600B8130CC2983098FDA899C298B811F630BD
:070DB60099FDC299F5992295
:00000001FF
